{
  "_format": "hh-sol-artifact-1",
  "contractName": "AssistantBot",
  "sourceName": "contracts/AssistantBot.sol",
  "abi": [
    {
      "inputs": [
        {
          "internalType": "address",
          "name": "initialOracleService",
          "type": "address"
        }
      ],
      "stateMutability": "nonpayable",
      "type": "constructor"
    },
    {
      "anonymous": false,
      "inputs": [
        {
          "indexed": true,
          "internalType": "address",
          "name": "user",
          "type": "address"
        },
        {
          "indexed": true,
          "internalType": "uint256",
          "name": "sessionId",
          "type": "uint256"
        }
      ],
      "name": "ConversationStarted",
      "type": "event"
    },
    {
      "anonymous": false,
      "inputs": [
        {
          "indexed": true,
          "internalType": "address",
          "name": "newOracleService",
          "type": "address"
        }
      ],
      "name": "OracleServiceUpdated",
      "type": "event"
    },
    {
      "inputs": [
        {
          "internalType": "string",
          "name": "userInput",
          "type": "string"
        },
        {
          "internalType": "uint256",
          "name": "sessionId",
          "type": "uint256"
        }
      ],
      "name": "addInteraction",
      "outputs": [],
      "stateMutability": "nonpayable",
      "type": "function"
    },
    {
      "inputs": [
        {
          "internalType": "uint256",
          "name": "",
          "type": "uint256"
        }
      ],
      "name": "conversationSessions",
      "outputs": [
        {
          "internalType": "address",
          "name": "user",
          "type": "address"
        },
        {
          "internalType": "uint256",
          "name": "interactionCount",
          "type": "uint256"
        }
      ],
      "stateMutability": "view",
      "type": "function"
    },
    {
      "inputs": [
        {
          "internalType": "uint256",
          "name": "sessionId",
          "type": "uint256"
        }
      ],
      "name": "getConversationParticipants",
      "outputs": [
        {
          "internalType": "string[]",
          "name": "",
          "type": "string[]"
        }
      ],
      "stateMutability": "view",
      "type": "function"
    },
    {
      "inputs": [
        {
          "internalType": "uint256",
          "name": "sessionId",
          "type": "uint256"
        }
      ],
      "name": "getConversationTexts",
      "outputs": [
        {
          "internalType": "string[]",
          "name": "",
          "type": "string[]"
        }
      ],
      "stateMutability": "view",
      "type": "function"
    },
    {
      "inputs": [
        {
          "internalType": "string",
          "name": "initialText",
          "type": "string"
        }
      ],
      "name": "initiateConversation",
      "outputs": [
        {
          "internalType": "uint256",
          "name": "",
          "type": "uint256"
        }
      ],
      "stateMutability": "nonpayable",
      "type": "function"
    },
    {
      "inputs": [
        {
          "internalType": "uint256",
          "name": "sessionId",
          "type": "uint256"
        },
        {
          "internalType": "string",
          "name": "response",
          "type": "string"
        },
        {
          "internalType": "string",
          "name": "",
          "type": "string"
        }
      ],
      "name": "onOracleAssistantResponse",
      "outputs": [],
      "stateMutability": "nonpayable",
      "type": "function"
    },
    {
      "inputs": [],
      "name": "oracleService",
      "outputs": [
        {
          "internalType": "address",
          "name": "",
          "type": "address"
        }
      ],
      "stateMutability": "view",
      "type": "function"
    },
    {
      "inputs": [
        {
          "internalType": "address",
          "name": "newOracleService",
          "type": "address"
        }
      ],
      "name": "setOracleService",
      "outputs": [],
      "stateMutability": "nonpayable",
      "type": "function"
    }
  ],
  "bytecode": "0x60806040523480156200001157600080fd5b5060405162001c9638038062001c96833981810160405281019062000037919062000129565b336000806101000a81548173ffffffffffffffffffffffffffffffffffffffff021916908373ffffffffffffffffffffffffffffffffffffffff16021790555080600160006101000a81548173ffffffffffffffffffffffffffffffffffffffff021916908373ffffffffffffffffffffffffffffffffffffffff160217905550506200015b565b600080fd5b600073ffffffffffffffffffffffffffffffffffffffff82169050919050565b6000620000f182620000c4565b9050919050565b6200010381620000e4565b81146200010f57600080fd5b50565b6000815190506200012381620000f8565b92915050565b600060208284031215620001425762000141620000bf565b5b6000620001528482850162000112565b91505092915050565b611b2b806200016b6000396000f3fe608060405234801561001057600080fd5b50600436106100885760003560e01c8063a438ebfc1161005b578063a438ebfc14610112578063bebd91ba14610142578063daa64f9514610172578063e7efd76a1461019057610088565b80631a8499681461008d57806351be1af0146100a957806382261358146100c55780639221408b146100f6575b600080fd5b6100a760048036038101906100a29190610f1f565b6101c0565b005b6100c360048036038101906100be9190611008565b6103f5565b005b6100df60048036038101906100da9190611035565b61050a565b6040516100ed929190611080565b60405180910390f35b610110600480360381019061010b91906110a9565b61054e565b005b61012c60048036038101906101279190611105565b610823565b604051610139919061114e565b60405180910390f35b61015c60048036038101906101579190611035565b610a3f565b60405161016991906112aa565b60405180910390f35b61017a610bc7565b60405161018791906112cc565b60405180910390f35b6101aa60048036038101906101a59190611035565b610bed565b6040516101b791906112aa565b60405180910390f35b600160009054906101000a900473ffffffffffffffffffffffffffffffffffffffff1673ffffffffffffffffffffffffffffffffffffffff163373ffffffffffffffffffffffffffffffffffffffff1614610250576040517f08c379a000000000000000000000000000000000000000000000000000000000815260040161024790611344565b60405180910390fd5b6000600260008581526020019081526020016000209050604051602001610276906113bb565b6040516020818303038152906040528051906020012081600101600183600201546102a191906113ff565b815481106102b2576102b1611433565b5b90600052602060002090600202016000016040516020016102d3919061155a565b6040516020818303038152906040528051906020012014610329576040517f08c379a0000000000000000000000000000000000000000000000000000000008152600401610320906115bd565b60405180910390fd5b610331610d75565b8381602001819052506040518060400160405280600981526020017f617373697374616e74000000000000000000000000000000000000000000000081525081600001819052508160010181908060018154018082558091505060019003906000526020600020906002020160009091909190915060008201518160000190816103bb9190611774565b5060208201518160010190816103d19190611774565b5050508160020160008154809291906103e990611846565b91905055505050505050565b60008054906101000a900473ffffffffffffffffffffffffffffffffffffffff1673ffffffffffffffffffffffffffffffffffffffff163373ffffffffffffffffffffffffffffffffffffffff1614610483576040517f08c379a000000000000000000000000000000000000000000000000000000000815260040161047a906118da565b60405180910390fd5b80600160006101000a81548173ffffffffffffffffffffffffffffffffffffffff021916908373ffffffffffffffffffffffffffffffffffffffff1602179055508073ffffffffffffffffffffffffffffffffffffffff167f12961990c60ffb0aa5ad98a4e1261c079049d60b8010fc2e0c13a2dd80aba5f860405160405180910390a250565b60026020528060005260406000206000915090508060000160009054906101000a900473ffffffffffffffffffffffffffffffffffffffff16908060020154905082565b600060026000838152602001908152602001600020905060405160200161057490611946565b60405160208183030381529060405280519060200120816001016001836002015461059f91906113ff565b815481106105b0576105af611433565b5b90600052602060002090600202016000016040516020016105d1919061155a565b6040516020818303038152906040528051906020012014610627576040517f08c379a000000000000000000000000000000000000000000000000000000000815260040161061e906119cd565b60405180910390fd5b3373ffffffffffffffffffffffffffffffffffffffff168160000160009054906101000a900473ffffffffffffffffffffffffffffffffffffffff1673ffffffffffffffffffffffffffffffffffffffff16146106b9576040517f08c379a00000000000000000000000000000000000000000000000000000000081526004016106b090611a5f565b60405180910390fd5b6106c1610d75565b8381602001819052506040518060400160405280600481526020017f7573657200000000000000000000000000000000000000000000000000000000815250816000018190525081600101819080600181540180825580915050600190039060005260206000209060020201600090919091909150600082015181600001908161074b9190611774565b5060208201518160010190816107619190611774565b50505081600201600081548092919061077990611846565b9190505550600160009054906101000a900473ffffffffffffffffffffffffffffffffffffffff1673ffffffffffffffffffffffffffffffffffffffff16637ca5d116846040518263ffffffff1660e01b81526004016107d9919061114e565b6020604051808303816000875af11580156107f8573d6000803e3d6000fd5b505050506040513d601f19601f8201168201806040525081019061081c9190611a94565b5050505050565b6000806002600060035481526020019081526020016000209050338160000160006101000a81548173ffffffffffffffffffffffffffffffffffffffff021916908373ffffffffffffffffffffffffffffffffffffffff160217905550610888610d75565b8381602001819052506040518060400160405280600481526020017f757365720000000000000000000000000000000000000000000000000000000081525081600001819052508160010181908060018154018082558091505060019003906000526020600020906002020160009091909190915060008201518160000190816109129190611774565b5060208201518160010190816109289190611774565b5050506001826002018190555060006003549050600160035461094b9190611ac1565b600381905550600160009054906101000a900473ffffffffffffffffffffffffffffffffffffffff1673ffffffffffffffffffffffffffffffffffffffff16637ca5d116826040518263ffffffff1660e01b81526004016109ac919061114e565b6020604051808303816000875af11580156109cb573d6000803e3d6000fd5b505050506040513d601f19601f820116820180604052508101906109ef9190611a94565b50803373ffffffffffffffffffffffffffffffffffffffff167f024f6d0bd9fdff56f6651ce0f01f4d2039143369aa6eadd2af54378b59e97c0660405160405180910390a3809350505050919050565b60606000600260008481526020019081526020016000206001018054905067ffffffffffffffff811115610a7657610a75610df4565b5b604051908082528060200260200182016040528015610aa957816020015b6060815260200190600190039081610a945790505b50905060005b6002600085815260200190815260200160002060010180549050811015610bbd57600260008581526020019081526020016000206001018181548110610af857610af7611433565b5b90600052602060002090600202016000018054610b1490611491565b80601f0160208091040260200160405190810160405280929190818152602001828054610b4090611491565b8015610b8d5780601f10610b6257610100808354040283529160200191610b8d565b820191906000526020600020905b815481529060010190602001808311610b7057829003601f168201915b5050505050828281518110610ba557610ba4611433565b5b60200260200101819052508080600101915050610aaf565b5080915050919050565b600160009054906101000a900473ffffffffffffffffffffffffffffffffffffffff1681565b60606000600260008481526020019081526020016000206001018054905067ffffffffffffffff811115610c2457610c23610df4565b5b604051908082528060200260200182016040528015610c5757816020015b6060815260200190600190039081610c425790505b50905060005b6002600085815260200190815260200160002060010180549050811015610d6b57600260008581526020019081526020016000206001018181548110610ca657610ca5611433565b5b90600052602060002090600202016001018054610cc290611491565b80601f0160208091040260200160405190810160405280929190818152602001828054610cee90611491565b8015610d3b5780601f10610d1057610100808354040283529160200191610d3b565b820191906000526020600020905b815481529060010190602001808311610d1e57829003601f168201915b5050505050828281518110610d5357610d52611433565b5b60200260200101819052508080600101915050610c5d565b5080915050919050565b604051806040016040528060608152602001606081525090565b6000604051905090565b600080fd5b600080fd5b6000819050919050565b610db681610da3565b8114610dc157600080fd5b50565b600081359050610dd381610dad565b92915050565b600080fd5b600080fd5b6000601f19601f8301169050919050565b7f4e487b7100000000000000000000000000000000000000000000000000000000600052604160045260246000fd5b610e2c82610de3565b810181811067ffffffffffffffff82111715610e4b57610e4a610df4565b5b80604052505050565b6000610e5e610d8f565b9050610e6a8282610e23565b919050565b600067ffffffffffffffff821115610e8a57610e89610df4565b5b610e9382610de3565b9050602081019050919050565b82818337600083830152505050565b6000610ec2610ebd84610e6f565b610e54565b905082815260208101848484011115610ede57610edd610dde565b5b610ee9848285610ea0565b509392505050565b600082601f830112610f0657610f05610dd9565b5b8135610f16848260208601610eaf565b91505092915050565b600080600060608486031215610f3857610f37610d99565b5b6000610f4686828701610dc4565b935050602084013567ffffffffffffffff811115610f6757610f66610d9e565b5b610f7386828701610ef1565b925050604084013567ffffffffffffffff811115610f9457610f93610d9e565b5b610fa086828701610ef1565b9150509250925092565b600073ffffffffffffffffffffffffffffffffffffffff82169050919050565b6000610fd582610faa565b9050919050565b610fe581610fca565b8114610ff057600080fd5b50565b60008135905061100281610fdc565b92915050565b60006020828403121561101e5761101d610d99565b5b600061102c84828501610ff3565b91505092915050565b60006020828403121561104b5761104a610d99565b5b600061105984828501610dc4565b91505092915050565b61106b81610fca565b82525050565b61107a81610da3565b82525050565b60006040820190506110956000830185611062565b6110a26020830184611071565b9392505050565b600080604083850312156110c0576110bf610d99565b5b600083013567ffffffffffffffff8111156110de576110dd610d9e565b5b6110ea85828601610ef1565b92505060206110fb85828601610dc4565b9150509250929050565b60006020828403121561111b5761111a610d99565b5b600082013567ffffffffffffffff81111561113957611138610d9e565b5b61114584828501610ef1565b91505092915050565b60006020820190506111636000830184611071565b92915050565b600081519050919050565b600082825260208201905092915050565b6000819050602082019050919050565b600081519050919050565b600082825260208201905092915050565b60005b838110156111cf5780820151818401526020810190506111b4565b60008484015250505050565b60006111e682611195565b6111f081856111a0565b93506112008185602086016111b1565b61120981610de3565b840191505092915050565b600061122083836111db565b905092915050565b6000602082019050919050565b600061124082611169565b61124a8185611174565b93508360208202850161125c85611185565b8060005b8581101561129857848403895281516112798582611214565b945061128483611228565b925060208a01995050600181019050611260565b50829750879550505050505092915050565b600060208201905081810360008301526112c48184611235565b905092915050565b60006020820190506112e16000830184611062565b92915050565b600082825260208201905092915050565b7f43616c6c6572206973206e6f7420746865206f7261636c652073657276696365600082015250565b600061132e6020836112e7565b9150611339826112f8565b602082019050919050565b6000602082019050818103600083015261135d81611321565b9050919050565b600081905092915050565b7f7573657200000000000000000000000000000000000000000000000000000000600082015250565b60006113a5600483611364565b91506113b08261136f565b600482019050919050565b60006113c682611398565b9150819050919050565b7f4e487b7100000000000000000000000000000000000000000000000000000000600052601160045260246000fd5b600061140a82610da3565b915061141583610da3565b925082820390508181111561142d5761142c6113d0565b5b92915050565b7f4e487b7100000000000000000000000000000000000000000000000000000000600052603260045260246000fd5b7f4e487b7100000000000000000000000000000000000000000000000000000000600052602260045260246000fd5b600060028204905060018216806114a957607f821691505b6020821081036114bc576114bb611462565b5b50919050565b60008190508160005260206000209050919050565b600081546114e481611491565b6114ee8186611364565b94506001821660008114611509576001811461151e57611551565b60ff1983168652811515820286019350611551565b611527856114c2565b60005b838110156115495781548189015260018201915060208101905061152a565b838801955050505b50505092915050565b600061156682846114d7565b915081905092915050565b7f4e6f20696e746572616374696f6e20746f20726573706f6e6420746f00000000600082015250565b60006115a7601c836112e7565b91506115b282611571565b602082019050919050565b600060208201905081810360008301526115d68161159a565b9050919050565b60006020601f8301049050919050565b600082821b905092915050565b60006008830261162a7fffffffffffffffffffffffffffffffffffffffffffffffffffffffffffffffff826115ed565b61163486836115ed565b95508019841693508086168417925050509392505050565b6000819050919050565b600061167161166c61166784610da3565b61164c565b610da3565b9050919050565b6000819050919050565b61168b83611656565b61169f61169782611678565b8484546115fa565b825550505050565b600090565b6116b46116a7565b6116bf818484611682565b505050565b5b818110156116e3576116d86000826116ac565b6001810190506116c5565b5050565b601f821115611728576116f9816114c2565b611702846115dd565b81016020851015611711578190505b61172561171d856115dd565b8301826116c4565b50505b505050565b600082821c905092915050565b600061174b6000198460080261172d565b1980831691505092915050565b6000611764838361173a565b9150826002028217905092915050565b61177d82611195565b67ffffffffffffffff81111561179657611795610df4565b5b6117a08254611491565b6117ab8282856116e7565b600060209050601f8311600181146117de57600084156117cc578287015190505b6117d68582611758565b86555061183e565b601f1984166117ec866114c2565b60005b82811015611814578489015182556001820191506020850194506020810190506117ef565b86831015611831578489015161182d601f89168261173a565b8355505b6001600288020188555050505b505050505050565b600061185182610da3565b91507fffffffffffffffffffffffffffffffffffffffffffffffffffffffffffffffff8203611883576118826113d0565b5b600182019050919050565b7f43616c6c6572206973206e6f742074686520626f742061646d696e0000000000600082015250565b60006118c4601b836112e7565b91506118cf8261188e565b602082019050919050565b600060208201905081810360008301526118f3816118b7565b9050919050565b7f617373697374616e740000000000000000000000000000000000000000000000600082015250565b6000611930600983611364565b915061193b826118fa565b600982019050919050565b600061195182611923565b9150819050919050565b7f4e6f20726573706f6e736520746f2070726576696f757320696e74657261637460008201527f696f6e0000000000000000000000000000000000000000000000000000000000602082015250565b60006119b76023836112e7565b91506119c28261195b565b604082019050919050565b600060208201905081810360008301526119e6816119aa565b9050919050565b7f4f6e6c792073657373696f6e20757365722063616e2061646420696e7465726160008201527f6374696f6e730000000000000000000000000000000000000000000000000000602082015250565b6000611a496026836112e7565b9150611a54826119ed565b604082019050919050565b60006020820190508181036000830152611a7881611a3c565b9050919050565b600081519050611a8e81610dad565b92915050565b600060208284031215611aaa57611aa9610d99565b5b6000611ab884828501611a7f565b91505092915050565b6000611acc82610da3565b9150611ad783610da3565b9250828201905080821115611aef57611aee6113d0565b5b9291505056fea2646970667358221220be913617fff5fdbabc089db771444fd5f2d887fd766a064d7b19bc1aebfb2ec264736f6c63430008180033",
  "linkReferences": {},
  "deployedLinkReferences": {}
}