{
  "_format": "hh-sol-artifact-1",
  "contractName": "ImagineKitPlatform",
  "sourceName": "contracts/ImagineKitPlatform.sol",
  "abi": [
    {
      "inputs": [
        {
          "internalType": "contract IERC20",
          "name": "_fanToken",
          "type": "address"
        }
      ],
      "stateMutability": "nonpayable",
      "type": "constructor"
    },
    {
      "anonymous": false,
      "inputs": [
        {
          "indexed": true,
          "internalType": "address",
          "name": "creator",
          "type": "address"
        },
        {
          "indexed": false,
          "internalType": "uint256",
          "name": "amount",
          "type": "uint256"
        }
      ],
      "name": "EarningsWithdrawn",
      "type": "event"
    },
    {
      "anonymous": false,
      "inputs": [
        {
          "indexed": true,
          "internalType": "uint256",
          "name": "experienceId",
          "type": "uint256"
        },
        {
          "indexed": true,
          "internalType": "address",
          "name": "creator",
          "type": "address"
        },
        {
          "indexed": false,
          "internalType": "uint256",
          "name": "price",
          "type": "uint256"
        },
        {
          "indexed": false,
          "internalType": "uint256",
          "name": "platformFeePercentage",
          "type": "uint256"
        }
      ],
      "name": "ExperienceRegistered",
      "type": "event"
    },
    {
      "anonymous": false,
      "inputs": [
        {
          "indexed": true,
          "internalType": "uint256",
          "name": "experienceId",
          "type": "uint256"
        },
        {
          "indexed": true,
          "internalType": "address",
          "name": "user",
          "type": "address"
        },
        {
          "indexed": false,
          "internalType": "uint256",
          "name": "fee",
          "type": "uint256"
        }
      ],
      "name": "ExperienceUsed",
      "type": "event"
    },
    {
      "anonymous": false,
      "inputs": [
        {
          "indexed": true,
          "internalType": "address",
          "name": "user",
          "type": "address"
        },
        {
          "indexed": false,
          "internalType": "uint256",
          "name": "amount",
          "type": "uint256"
        }
      ],
      "name": "RewardsClaimed",
      "type": "event"
    },
    {
      "inputs": [
        {
          "internalType": "uint256",
          "name": "_experienceId",
          "type": "uint256"
        }
      ],
      "name": "claimRewards",
      "outputs": [],
      "stateMutability": "nonpayable",
      "type": "function"
    },
    {
      "inputs": [
        {
          "internalType": "address",
          "name": "",
          "type": "address"
        }
      ],
      "name": "earnings",
      "outputs": [
        {
          "internalType": "uint256",
          "name": "",
          "type": "uint256"
        }
      ],
      "stateMutability": "view",
      "type": "function"
    },
    {
      "inputs": [],
      "name": "experienceCounter",
      "outputs": [
        {
          "internalType": "uint256",
          "name": "",
          "type": "uint256"
        }
      ],
      "stateMutability": "view",
      "type": "function"
    },
    {
      "inputs": [
        {
          "internalType": "uint256",
          "name": "",
          "type": "uint256"
        }
      ],
      "name": "experiences",
      "outputs": [
        {
          "internalType": "address",
          "name": "creator",
          "type": "address"
        },
        {
          "internalType": "uint256",
          "name": "price",
          "type": "uint256"
        },
        {
          "internalType": "uint256",
          "name": "usageCount",
          "type": "uint256"
        },
        {
          "internalType": "bool",
          "name": "isActive",
          "type": "bool"
        },
        {
          "internalType": "uint256",
          "name": "platformFeePercentage",
          "type": "uint256"
        },
        {
          "internalType": "uint256",
          "name": "rewardPool",
          "type": "uint256"
        }
      ],
      "stateMutability": "view",
      "type": "function"
    },
    {
      "inputs": [],
      "name": "fanToken",
      "outputs": [
        {
          "internalType": "contract IERC20",
          "name": "",
          "type": "address"
        }
      ],
      "stateMutability": "view",
      "type": "function"
    },
    {
      "inputs": [
        {
          "internalType": "uint256",
          "name": "_experienceId",
          "type": "uint256"
        }
      ],
      "name": "getExperienceDetails",
      "outputs": [
        {
          "internalType": "address",
          "name": "creator",
          "type": "address"
        },
        {
          "internalType": "uint256",
          "name": "price",
          "type": "uint256"
        },
        {
          "internalType": "uint256",
          "name": "usageCount",
          "type": "uint256"
        },
        {
          "internalType": "bool",
          "name": "isActive",
          "type": "bool"
        },
        {
          "internalType": "uint256",
          "name": "platformFeePercentage",
          "type": "uint256"
        },
        {
          "internalType": "uint256",
          "name": "rewardPool",
          "type": "uint256"
        }
      ],
      "stateMutability": "view",
      "type": "function"
    },
    {
      "inputs": [],
      "name": "platformOwner",
      "outputs": [
        {
          "internalType": "address",
          "name": "",
          "type": "address"
        }
      ],
      "stateMutability": "view",
      "type": "function"
    },
    {
      "inputs": [
        {
          "internalType": "uint256",
          "name": "_price",
          "type": "uint256"
        },
        {
          "internalType": "uint256",
          "name": "_platformFeePercentage",
          "type": "uint256"
        }
      ],
      "name": "registerExperience",
      "outputs": [],
      "stateMutability": "nonpayable",
      "type": "function"
    },
    {
      "inputs": [
        {
          "internalType": "uint256",
          "name": "_experienceId",
          "type": "uint256"
        },
        {
          "internalType": "uint256",
          "name": "_price",
          "type": "uint256"
        }
      ],
      "name": "setExperiencePrice",
      "outputs": [],
      "stateMutability": "nonpayable",
      "type": "function"
    },
    {
      "inputs": [
        {
          "internalType": "uint256",
          "name": "_experienceId",
          "type": "uint256"
        },
        {
          "internalType": "bool",
          "name": "_isActive",
          "type": "bool"
        }
      ],
      "name": "toggleExperienceStatus",
      "outputs": [],
      "stateMutability": "nonpayable",
      "type": "function"
    },
    {
      "inputs": [
        {
          "internalType": "uint256",
          "name": "_experienceId",
          "type": "uint256"
        }
      ],
      "name": "useExperience",
      "outputs": [],
      "stateMutability": "nonpayable",
      "type": "function"
    },
    {
      "inputs": [],
      "name": "withdrawEarnings",
      "outputs": [],
      "stateMutability": "nonpayable",
      "type": "function"
    }
  ],
  "bytecode": "0x60806040523480156200001157600080fd5b506040516200191b3803806200191b83398181016040528101906200003791906200013d565b806000806101000a81548173ffffffffffffffffffffffffffffffffffffffff021916908373ffffffffffffffffffffffffffffffffffffffff16021790555033600160006101000a81548173ffffffffffffffffffffffffffffffffffffffff021916908373ffffffffffffffffffffffffffffffffffffffff160217905550506200016f565b600080fd5b600073ffffffffffffffffffffffffffffffffffffffff82169050919050565b6000620000f182620000c4565b9050919050565b60006200010582620000e4565b9050919050565b6200011781620000f8565b81146200012357600080fd5b50565b60008151905062000137816200010c565b92915050565b600060208284031215620001565762000155620000bf565b5b6000620001668482850162000126565b91505092915050565b61179c806200017f6000396000f3fe608060405234801561001057600080fd5b50600436106100b45760003560e01c8063b73c6ce911610071578063b73c6ce914610192578063c09636d61461019c578063cead9223146101b8578063ceee6048146101d6578063cf3e7c7c146101f2578063ee5fe61b14610227576100b4565b8063039bb907146100b95780630962ef79146100d55780634df8ccb1146100f1578063543fd3131461010f57806375daa3de1461013f5780639fc7914c1461015d575b600080fd5b6100d360048036038101906100ce9190610ed9565b610243565b005b6100ef60048036038101906100ea9190610f19565b61034b565b005b6100f96104ae565b6040516101069190610f87565b60405180910390f35b61012960048036038101906101249190610fce565b6104d4565b604051610136919061100a565b60405180910390f35b6101476104ec565b6040516101549190611084565b60405180910390f35b61017760048036038101906101729190610f19565b610510565b604051610189969594939291906110ba565b60405180910390f35b61019a610608565b005b6101b660048036038101906101b19190610ed9565b6107c4565b005b6101c06109a9565b6040516101cd919061100a565b60405180910390f35b6101f060048036038101906101eb9190611147565b6109af565b005b61020c60048036038101906102079190610f19565b610a87565b60405161021e969594939291906110ba565b60405180910390f35b610241600480360381019061023c9190610f19565b610af0565b005b813373ffffffffffffffffffffffffffffffffffffffff166002600083815260200190815260200160002060000160009054906101000a900473ffffffffffffffffffffffffffffffffffffffff1673ffffffffffffffffffffffffffffffffffffffff16146102e8576040517f08c379a00000000000000000000000000000000000000000000000000000000081526004016102df9061120a565b60405180910390fd5b6000821161032b576040517f08c379a000000000000000000000000000000000000000000000000000000000815260040161032290611276565b60405180910390fd5b816002600085815260200190815260200160002060010181905550505050565b600060026000838152602001908152602001600020905060008160050154116103a9576040517f08c379a00000000000000000000000000000000000000000000000000000000081526004016103a0906112e2565b60405180910390fd5b6000816005015490506000826005018190555060008054906101000a900473ffffffffffffffffffffffffffffffffffffffff1673ffffffffffffffffffffffffffffffffffffffff1663a9059cbb33836040518363ffffffff1660e01b8152600401610417929190611302565b6020604051808303816000875af1158015610436573d6000803e3d6000fd5b505050506040513d601f19601f8201168201806040525081019061045a9190611340565b503373ffffffffffffffffffffffffffffffffffffffff167ffc30cddea38e2bf4d6ea7d3f9ed3b6ad7f176419f4963bd81318067a4aee73fe826040516104a1919061100a565b60405180910390a2505050565b600160009054906101000a900473ffffffffffffffffffffffffffffffffffffffff1681565b60036020528060005260406000206000915090505481565b60008054906101000a900473ffffffffffffffffffffffffffffffffffffffff1681565b6000806000806000806000600260008981526020019081526020016000206040518060c00160405290816000820160009054906101000a900473ffffffffffffffffffffffffffffffffffffffff1673ffffffffffffffffffffffffffffffffffffffff1673ffffffffffffffffffffffffffffffffffffffff16815260200160018201548152602001600282015481526020016003820160009054906101000a900460ff16151515158152602001600482015481526020016005820154815250509050806000015181602001518260400151836060015184608001518560a001519650965096509650965096505091939550919395565b6000600360003373ffffffffffffffffffffffffffffffffffffffff1673ffffffffffffffffffffffffffffffffffffffff1681526020019081526020016000205490506000811161068f576040517f08c379a0000000000000000000000000000000000000000000000000000000008152600401610686906113b9565b60405180910390fd5b6000600360003373ffffffffffffffffffffffffffffffffffffffff1673ffffffffffffffffffffffffffffffffffffffff1681526020019081526020016000208190555060008054906101000a900473ffffffffffffffffffffffffffffffffffffffff1673ffffffffffffffffffffffffffffffffffffffff1663a9059cbb33836040518363ffffffff1660e01b815260040161072f929190611302565b6020604051808303816000875af115801561074e573d6000803e3d6000fd5b505050506040513d601f19601f820116820180604052508101906107729190611340565b503373ffffffffffffffffffffffffffffffffffffffff167f48dc35af7b45e2a81fffad55f6e2fafacdb1d3d0d50d24ebdc16324f5ba757f1826040516107b9919061100a565b60405180910390a250565b60008211610807576040517f08c379a00000000000000000000000000000000000000000000000000000000081526004016107fe90611276565b60405180910390fd5b606481111561084b576040517f08c379a00000000000000000000000000000000000000000000000000000000081526004016108429061144b565b60405180910390fd5b6004600081548092919061085e9061149a565b91905055506040518060c001604052803373ffffffffffffffffffffffffffffffffffffffff16815260200183815260200160008152602001600115158152602001828152602001600081525060026000600454815260200190815260200160002060008201518160000160006101000a81548173ffffffffffffffffffffffffffffffffffffffff021916908373ffffffffffffffffffffffffffffffffffffffff160217905550602082015181600101556040820151816002015560608201518160030160006101000a81548160ff0219169083151502179055506080820151816004015560a082015181600501559050503373ffffffffffffffffffffffffffffffffffffffff166004547f947f40268c65afd8570faaff167a13428bffb5b577bbc4b83f025a223c715571848460405161099d9291906114e2565b60405180910390a35050565b60045481565b813373ffffffffffffffffffffffffffffffffffffffff166002600083815260200190815260200160002060000160009054906101000a900473ffffffffffffffffffffffffffffffffffffffff1673ffffffffffffffffffffffffffffffffffffffff1614610a54576040517f08c379a0000000000000000000000000000000000000000000000000000000008152600401610a4b9061120a565b60405180910390fd5b816002600085815260200190815260200160002060030160006101000a81548160ff021916908315150217905550505050565b60026020528060005260406000206000915090508060000160009054906101000a900473ffffffffffffffffffffffffffffffffffffffff16908060010154908060020154908060030160009054906101000a900460ff16908060040154908060050154905086565b60006002600083815260200190815260200160002090508060030160009054906101000a900460ff16610b58576040517f08c379a0000000000000000000000000000000000000000000000000000000008152600401610b4f90611557565b60405180910390fd5b806001015460008054906101000a900473ffffffffffffffffffffffffffffffffffffffff1673ffffffffffffffffffffffffffffffffffffffff166370a08231336040518263ffffffff1660e01b8152600401610bb69190610f87565b602060405180830381865afa158015610bd3573d6000803e3d6000fd5b505050506040513d601f19601f82011682018060405250810190610bf7919061158c565b1015610c38576040517f08c379a0000000000000000000000000000000000000000000000000000000008152600401610c2f90611605565b60405180910390fd5b6000606482600401548360010154610c509190611625565b610c5a9190611696565b90506000818360010154610c6e91906116c7565b905060008054906101000a900473ffffffffffffffffffffffffffffffffffffffff1673ffffffffffffffffffffffffffffffffffffffff166323b872dd33600160009054906101000a900473ffffffffffffffffffffffffffffffffffffffff16856040518463ffffffff1660e01b8152600401610cef939291906116fb565b6020604051808303816000875af1158015610d0e573d6000803e3d6000fd5b505050506040513d601f19601f82011682018060405250810190610d329190611340565b5060008054906101000a900473ffffffffffffffffffffffffffffffffffffffff1673ffffffffffffffffffffffffffffffffffffffff166323b872dd338560000160009054906101000a900473ffffffffffffffffffffffffffffffffffffffff16846040518463ffffffff1660e01b8152600401610db4939291906116fb565b6020604051808303816000875af1158015610dd3573d6000803e3d6000fd5b505050506040513d601f19601f82011682018060405250810190610df79190611340565b50826002016000815480929190610e0d9061149a565b91905055506064600a83610e219190611625565b610e2b9190611696565b836005016000828254610e3e9190611732565b925050819055503373ffffffffffffffffffffffffffffffffffffffff16847f50e37dba47850bb274908b9b37545022cee972d5739e9078c59c448761bfb8fd8560010154604051610e90919061100a565b60405180910390a350505050565b600080fd5b6000819050919050565b610eb681610ea3565b8114610ec157600080fd5b50565b600081359050610ed381610ead565b92915050565b60008060408385031215610ef057610eef610e9e565b5b6000610efe85828601610ec4565b9250506020610f0f85828601610ec4565b9150509250929050565b600060208284031215610f2f57610f2e610e9e565b5b6000610f3d84828501610ec4565b91505092915050565b600073ffffffffffffffffffffffffffffffffffffffff82169050919050565b6000610f7182610f46565b9050919050565b610f8181610f66565b82525050565b6000602082019050610f9c6000830184610f78565b92915050565b610fab81610f66565b8114610fb657600080fd5b50565b600081359050610fc881610fa2565b92915050565b600060208284031215610fe457610fe3610e9e565b5b6000610ff284828501610fb9565b91505092915050565b61100481610ea3565b82525050565b600060208201905061101f6000830184610ffb565b92915050565b6000819050919050565b600061104a61104561104084610f46565b611025565b610f46565b9050919050565b600061105c8261102f565b9050919050565b600061106e82611051565b9050919050565b61107e81611063565b82525050565b60006020820190506110996000830184611075565b92915050565b60008115159050919050565b6110b48161109f565b82525050565b600060c0820190506110cf6000830189610f78565b6110dc6020830188610ffb565b6110e96040830187610ffb565b6110f660608301866110ab565b6111036080830185610ffb565b61111060a0830184610ffb565b979650505050505050565b6111248161109f565b811461112f57600080fd5b50565b6000813590506111418161111b565b92915050565b6000806040838503121561115e5761115d610e9e565b5b600061116c85828601610ec4565b925050602061117d85828601611132565b9150509250929050565b600082825260208201905092915050565b7f4f6e6c79207468652063726561746f722063616e206d616e616765207468697360008201527f20657870657269656e6365000000000000000000000000000000000000000000602082015250565b60006111f4602b83611187565b91506111ff82611198565b604082019050919050565b60006020820190508181036000830152611223816111e7565b9050919050565b7f5072696365206d7573742062652067726561746572207468616e207a65726f00600082015250565b6000611260601f83611187565b915061126b8261122a565b602082019050919050565b6000602082019050818103600083015261128f81611253565b9050919050565b7f4e6f207265776172647320617661696c61626c65000000000000000000000000600082015250565b60006112cc601483611187565b91506112d782611296565b602082019050919050565b600060208201905081810360008301526112fb816112bf565b9050919050565b60006040820190506113176000830185610f78565b6113246020830184610ffb565b9392505050565b60008151905061133a8161111b565b92915050565b60006020828403121561135657611355610e9e565b5b60006113648482850161132b565b91505092915050565b7f4e6f206561726e696e677320746f207769746864726177000000000000000000600082015250565b60006113a3601783611187565b91506113ae8261136d565b602082019050919050565b600060208201905081810360008301526113d281611396565b9050919050565b7f506c6174666f726d20666565206d757374206265206265747765656e2030206160008201527f6e64203130300000000000000000000000000000000000000000000000000000602082015250565b6000611435602683611187565b9150611440826113d9565b604082019050919050565b6000602082019050818103600083015261146481611428565b9050919050565b7f4e487b7100000000000000000000000000000000000000000000000000000000600052601160045260246000fd5b60006114a582610ea3565b91507fffffffffffffffffffffffffffffffffffffffffffffffffffffffffffffffff82036114d7576114d661146b565b5b600182019050919050565b60006040820190506114f76000830185610ffb565b6115046020830184610ffb565b9392505050565b7f5468697320657870657269656e6365206973206e6f7420616374697665000000600082015250565b6000611541601d83611187565b915061154c8261150b565b602082019050919050565b6000602082019050818103600083015261157081611534565b9050919050565b60008151905061158681610ead565b92915050565b6000602082840312156115a2576115a1610e9e565b5b60006115b084828501611577565b91505092915050565b7f496e73756666696369656e7420746f6b656e2062616c616e6365000000000000600082015250565b60006115ef601a83611187565b91506115fa826115b9565b602082019050919050565b6000602082019050818103600083015261161e816115e2565b9050919050565b600061163082610ea3565b915061163b83610ea3565b925082820261164981610ea3565b915082820484148315176116605761165f61146b565b5b5092915050565b7f4e487b7100000000000000000000000000000000000000000000000000000000600052601260045260246000fd5b60006116a182610ea3565b91506116ac83610ea3565b9250826116bc576116bb611667565b5b828204905092915050565b60006116d282610ea3565b91506116dd83610ea3565b92508282039050818111156116f5576116f461146b565b5b92915050565b60006060820190506117106000830186610f78565b61171d6020830185610f78565b61172a6040830184610ffb565b949350505050565b600061173d82610ea3565b915061174883610ea3565b92508282019050808211156117605761175f61146b565b5b9291505056fea264697066735822122069426360e25eea1d16b471ddd8baced8b79074bce9d9c24b0f9ef8b7243b8faa64736f6c63430008180033",
  "linkReferences": {},
  "deployedLinkReferences": {}
}