{
  "_format": "hh-sol-artifact-1",
  "contractName": "ImagineKitRegistry",
  "sourceName": "contracts/ImagineKitRegistry.sol",
  "abi": [
    {
      "anonymous": false,
      "inputs": [
        {
          "indexed": true,
          "internalType": "uint256",
          "name": "appId",
          "type": "uint256"
        },
        {
          "indexed": true,
          "internalType": "address",
          "name": "creator",
          "type": "address"
        },
        {
          "indexed": false,
          "internalType": "uint256",
          "name": "price",
          "type": "uint256"
        }
      ],
      "name": "AppRegistered",
      "type": "event"
    },
    {
      "anonymous": false,
      "inputs": [
        {
          "indexed": true,
          "internalType": "uint256",
          "name": "appId",
          "type": "uint256"
        },
        {
          "indexed": true,
          "internalType": "address",
          "name": "user",
          "type": "address"
        },
        {
          "indexed": false,
          "internalType": "uint256",
          "name": "fee",
          "type": "uint256"
        }
      ],
      "name": "AppUsed",
      "type": "event"
    },
    {
      "anonymous": false,
      "inputs": [
        {
          "indexed": true,
          "internalType": "address",
          "name": "creator",
          "type": "address"
        },
        {
          "indexed": false,
          "internalType": "uint256",
          "name": "amount",
          "type": "uint256"
        }
      ],
      "name": "EarningsWithdrawn",
      "type": "event"
    },
    {
      "inputs": [],
      "name": "appCounter",
      "outputs": [
        {
          "internalType": "uint256",
          "name": "",
          "type": "uint256"
        }
      ],
      "stateMutability": "view",
      "type": "function"
    },
    {
      "inputs": [
        {
          "internalType": "uint256",
          "name": "",
          "type": "uint256"
        }
      ],
      "name": "apps",
      "outputs": [
        {
          "internalType": "address",
          "name": "creator",
          "type": "address"
        },
        {
          "internalType": "uint256",
          "name": "price",
          "type": "uint256"
        },
        {
          "internalType": "uint256",
          "name": "usageCount",
          "type": "uint256"
        },
        {
          "internalType": "bool",
          "name": "isActive",
          "type": "bool"
        }
      ],
      "stateMutability": "view",
      "type": "function"
    },
    {
      "inputs": [
        {
          "internalType": "address",
          "name": "",
          "type": "address"
        }
      ],
      "name": "earnings",
      "outputs": [
        {
          "internalType": "uint256",
          "name": "",
          "type": "uint256"
        }
      ],
      "stateMutability": "view",
      "type": "function"
    },
    {
      "inputs": [
        {
          "internalType": "uint256",
          "name": "_appId",
          "type": "uint256"
        }
      ],
      "name": "getAppDetails",
      "outputs": [
        {
          "internalType": "address",
          "name": "creator",
          "type": "address"
        },
        {
          "internalType": "uint256",
          "name": "price",
          "type": "uint256"
        },
        {
          "internalType": "uint256",
          "name": "usageCount",
          "type": "uint256"
        },
        {
          "internalType": "bool",
          "name": "isActive",
          "type": "bool"
        }
      ],
      "stateMutability": "view",
      "type": "function"
    },
    {
      "inputs": [
        {
          "internalType": "uint256",
          "name": "_price",
          "type": "uint256"
        }
      ],
      "name": "registerApp",
      "outputs": [],
      "stateMutability": "nonpayable",
      "type": "function"
    },
    {
      "inputs": [
        {
          "internalType": "uint256",
          "name": "_appId",
          "type": "uint256"
        },
        {
          "internalType": "uint256",
          "name": "_price",
          "type": "uint256"
        }
      ],
      "name": "setAppPrice",
      "outputs": [],
      "stateMutability": "nonpayable",
      "type": "function"
    },
    {
      "inputs": [
        {
          "internalType": "uint256",
          "name": "_appId",
          "type": "uint256"
        },
        {
          "internalType": "bool",
          "name": "_isActive",
          "type": "bool"
        }
      ],
      "name": "toggleAppStatus",
      "outputs": [],
      "stateMutability": "nonpayable",
      "type": "function"
    },
    {
      "inputs": [
        {
          "internalType": "uint256",
          "name": "_appId",
          "type": "uint256"
        }
      ],
      "name": "useApp",
      "outputs": [],
      "stateMutability": "payable",
      "type": "function"
    },
    {
      "inputs": [],
      "name": "withdrawEarnings",
      "outputs": [],
      "stateMutability": "nonpayable",
      "type": "function"
    }
  ],
  "bytecode": "0x608060405234801561001057600080fd5b50610f28806100206000396000f3fe6080604052600436106100865760003560e01c80637a8bc30c116100595780637a8bc30c1461014d578063ad3915c81461018d578063b2ce5c64146101b6578063b73c6ce9146101df578063eba50beb146101f657610086565b806305f05b9e1461008b5780630ca62d57146100b4578063543fd313146100d057806361acc37e1461010d575b600080fd5b34801561009757600080fd5b506100b260048036038101906100ad9190610a2f565b610221565b005b6100ce60048036038101906100c99190610a6f565b6102f7565b005b3480156100dc57600080fd5b506100f760048036038101906100f29190610afa565b61048b565b6040516101049190610b36565b60405180910390f35b34801561011957600080fd5b50610134600480360381019061012f9190610a6f565b6104a3565b6040516101449493929190610b6f565b60405180910390f35b34801561015957600080fd5b50610174600480360381019061016f9190610a6f565b610500565b6040516101849493929190610b6f565b60405180910390f35b34801561019957600080fd5b506101b460048036038101906101af9190610a6f565b6105d0565b005b3480156101c257600080fd5b506101dd60048036038101906101d89190610bb4565b61074c565b005b3480156101eb57600080fd5b506101f4610852565b005b34801561020257600080fd5b5061020b6109b6565b6040516102189190610b36565b60405180910390f35b813373ffffffffffffffffffffffffffffffffffffffff1660008083815260200190815260200160002060000160009054906101000a900473ffffffffffffffffffffffffffffffffffffffff1673ffffffffffffffffffffffffffffffffffffffff16146102c5576040517f08c379a00000000000000000000000000000000000000000000000000000000081526004016102bc90610c77565b60405180910390fd5b8160008085815260200190815260200160002060030160006101000a81548160ff021916908315150217905550505050565b600080600083815260200190815260200160002090508060030160009054906101000a900460ff1661035e576040517f08c379a000000000000000000000000000000000000000000000000000000000815260040161035590610ce3565b60405180910390fd5b806001015434146103a4576040517f08c379a000000000000000000000000000000000000000000000000000000000815260040161039b90610d4f565b60405180910390fd5b8060020160008154809291906103b990610d9e565b919050555034600160008360000160009054906101000a900473ffffffffffffffffffffffffffffffffffffffff1673ffffffffffffffffffffffffffffffffffffffff1673ffffffffffffffffffffffffffffffffffffffff16815260200190815260200160002060008282546104319190610de6565b925050819055503373ffffffffffffffffffffffffffffffffffffffff16827f661b8c2fd58478c3f5a15a0cde70f058a8765d3e28538fb4fb5dd84979bf62663460405161047f9190610b36565b60405180910390a35050565b60016020528060005260406000206000915090505481565b60006020528060005260406000206000915090508060000160009054906101000a900473ffffffffffffffffffffffffffffffffffffffff16908060010154908060020154908060030160009054906101000a900460ff16905084565b60008060008060008060008781526020019081526020016000206040518060800160405290816000820160009054906101000a900473ffffffffffffffffffffffffffffffffffffffff1673ffffffffffffffffffffffffffffffffffffffff1673ffffffffffffffffffffffffffffffffffffffff16815260200160018201548152602001600282015481526020016003820160009054906101000a900460ff161515151581525050905080600001518160200151826040015183606001519450945094509450509193509193565b60008111610613576040517f08c379a000000000000000000000000000000000000000000000000000000000815260040161060a90610e66565b60405180910390fd5b6002600081548092919061062690610d9e565b919050555060405180608001604052803373ffffffffffffffffffffffffffffffffffffffff1681526020018281526020016000815260200160011515815250600080600254815260200190815260200160002060008201518160000160006101000a81548173ffffffffffffffffffffffffffffffffffffffff021916908373ffffffffffffffffffffffffffffffffffffffff160217905550602082015181600101556040820151816002015560608201518160030160006101000a81548160ff0219169083151502179055509050503373ffffffffffffffffffffffffffffffffffffffff166002547ff9d1a6d0b22a38ea4b2dc0619c3058066a662e3b22a6fd257e78d2374e19aaf4836040516107419190610b36565b60405180910390a350565b813373ffffffffffffffffffffffffffffffffffffffff1660008083815260200190815260200160002060000160009054906101000a900473ffffffffffffffffffffffffffffffffffffffff1673ffffffffffffffffffffffffffffffffffffffff16146107f0576040517f08c379a00000000000000000000000000000000000000000000000000000000081526004016107e790610c77565b60405180910390fd5b60008211610833576040517f08c379a000000000000000000000000000000000000000000000000000000000815260040161082a90610e66565b60405180910390fd5b8160008085815260200190815260200160002060010181905550505050565b6000600160003373ffffffffffffffffffffffffffffffffffffffff1673ffffffffffffffffffffffffffffffffffffffff168152602001908152602001600020549050600081116108d9576040517f08c379a00000000000000000000000000000000000000000000000000000000081526004016108d090610ed2565b60405180910390fd5b6000600160003373ffffffffffffffffffffffffffffffffffffffff1673ffffffffffffffffffffffffffffffffffffffff168152602001908152602001600020819055503373ffffffffffffffffffffffffffffffffffffffff166108fc829081150290604051600060405180830381858888f19350505050158015610964573d6000803e3d6000fd5b503373ffffffffffffffffffffffffffffffffffffffff167f48dc35af7b45e2a81fffad55f6e2fafacdb1d3d0d50d24ebdc16324f5ba757f1826040516109ab9190610b36565b60405180910390a250565b60025481565b600080fd5b6000819050919050565b6109d4816109c1565b81146109df57600080fd5b50565b6000813590506109f1816109cb565b92915050565b60008115159050919050565b610a0c816109f7565b8114610a1757600080fd5b50565b600081359050610a2981610a03565b92915050565b60008060408385031215610a4657610a456109bc565b5b6000610a54858286016109e2565b9250506020610a6585828601610a1a565b9150509250929050565b600060208284031215610a8557610a846109bc565b5b6000610a93848285016109e2565b91505092915050565b600073ffffffffffffffffffffffffffffffffffffffff82169050919050565b6000610ac782610a9c565b9050919050565b610ad781610abc565b8114610ae257600080fd5b50565b600081359050610af481610ace565b92915050565b600060208284031215610b1057610b0f6109bc565b5b6000610b1e84828501610ae5565b91505092915050565b610b30816109c1565b82525050565b6000602082019050610b4b6000830184610b27565b92915050565b610b5a81610abc565b82525050565b610b69816109f7565b82525050565b6000608082019050610b846000830187610b51565b610b916020830186610b27565b610b9e6040830185610b27565b610bab6060830184610b60565b95945050505050565b60008060408385031215610bcb57610bca6109bc565b5b6000610bd9858286016109e2565b9250506020610bea858286016109e2565b9150509250929050565b600082825260208201905092915050565b7f4f6e6c79207468652063726561746f722063616e206d616e616765207468697360008201527f2061707000000000000000000000000000000000000000000000000000000000602082015250565b6000610c61602483610bf4565b9150610c6c82610c05565b604082019050919050565b60006020820190508181036000830152610c9081610c54565b9050919050565b7f5468697320617070206973206e6f742061637469766500000000000000000000600082015250565b6000610ccd601683610bf4565b9150610cd882610c97565b602082019050919050565b60006020820190508181036000830152610cfc81610cc0565b9050919050565b7f496e636f7272656374206665652073656e740000000000000000000000000000600082015250565b6000610d39601283610bf4565b9150610d4482610d03565b602082019050919050565b60006020820190508181036000830152610d6881610d2c565b9050919050565b7f4e487b7100000000000000000000000000000000000000000000000000000000600052601160045260246000fd5b6000610da9826109c1565b91507fffffffffffffffffffffffffffffffffffffffffffffffffffffffffffffffff8203610ddb57610dda610d6f565b5b600182019050919050565b6000610df1826109c1565b9150610dfc836109c1565b9250828201905080821115610e1457610e13610d6f565b5b92915050565b7f5072696365206d7573742062652067726561746572207468616e207a65726f00600082015250565b6000610e50601f83610bf4565b9150610e5b82610e1a565b602082019050919050565b60006020820190508181036000830152610e7f81610e43565b9050919050565b7f4e6f206561726e696e677320746f207769746864726177000000000000000000600082015250565b6000610ebc601783610bf4565b9150610ec782610e86565b602082019050919050565b60006020820190508181036000830152610eeb81610eaf565b905091905056fea26469706673582212207495304d030f85dec49f3735a022ee4ed6dee80782fbb4d50b79756d5719447b64736f6c63430008180033",
  "linkReferences": {},
  "deployedLinkReferences": {}
}